{"abi":[{"type":"function","name":"_msgSender","inputs":[],"outputs":[{"name":"sender","type":"address","internalType":"address"}],"stateMutability":"view"},{"type":"function","name":"_msgValue","inputs":[],"outputs":[{"name":"value","type":"uint256","internalType":"uint256"}],"stateMutability":"pure"},{"type":"function","name":"_world","inputs":[],"outputs":[{"name":"","type":"address","internalType":"address"}],"stateMutability":"view"},{"type":"function","name":"describe","inputs":[],"outputs":[{"name":"rDesc","type":"string","internalType":"string"}],"stateMutability":"nonpayable"},{"type":"function","name":"increment","inputs":[],"outputs":[{"name":"","type":"uint32","internalType":"uint32"}],"stateMutability":"nonpayable"},{"type":"function","name":"supportsInterface","inputs":[{"name":"interfaceId","type":"bytes4","internalType":"bytes4"}],"outputs":[{"name":"","type":"bool","internalType":"bool"}],"stateMutability":"pure"},{"type":"event","name":"Store_SpliceStaticData","inputs":[{"name":"tableId","type":"bytes32","indexed":true,"internalType":"ResourceId"},{"name":"keyTuple","type":"bytes32[]","indexed":false,"internalType":"bytes32[]"},{"name":"start","type":"uint48","indexed":false,"internalType":"uint48"},{"name":"data","type":"bytes","indexed":false,"internalType":"bytes"}],"anonymous":false},{"type":"error","name":"Slice_OutOfBounds","inputs":[{"name":"data","type":"bytes","internalType":"bytes"},{"name":"start","type":"uint256","internalType":"uint256"},{"name":"end","type":"uint256","internalType":"uint256"}]}],"bytecode":{"object":"0x608060405234801561001057600080fd5b506111fb806100206000396000f3fe608060405234801561001057600080fd5b50600436106100725760003560e01c806345ec93541161005057806345ec9354146100e1578063d09de08a146100f4578063e1af802c1461011157600080fd5b806301ffc9a714610077578063119df25f1461009f5780631ad184ff146100cc575b600080fd5b61008a610085366004610e43565b610119565b60405190151581526020015b60405180910390f35b6100a76101b2565b60405173ffffffffffffffffffffffffffffffffffffffff9091168152602001610096565b6100d46101c1565b6040516100969190610ecb565b604051601f193601358152602001610096565b6100fc6101e1565b60405163ffffffff9091168152602001610096565b6100a7610206565b60007fffffffff0000000000000000000000000000000000000000000000000000000082167fb42128800000000000000000000000000000000000000000000000000000000014806101ac57507fffffffff0000000000000000000000000000000000000000000000000000000082167f01ffc9a700000000000000000000000000000000000000000000000000000000145b92915050565b60006101bc610210565b905090565b60606040518060600160405280602481526020016111a260249139905090565b6000806101ec610242565b905060006101fb826001610f0d565b90506101ac816102da565b60006101bc6103ac565b7fffffffffffffffffffffffffffffffffffffffffffffffffffffffffffffffcc36013560601c8061023f5750335b90565b604080516000808252602082018352613a3160f11b82840152604282018190527f436f756e746572000000000000000000000000000000000000000000000000006050830152825180830384018152606083019093529182906102d0906102a890610f31565b8360007e040100040000000000000000000000000000000000000000000000000000006103f8565b60e01c9392505050565b604080516000808252602082018352613a3160f11b8284015260428201527f436f756e74657200000000000000000000000000000000000000000000000000605082015281518082038301815260608201909252906103a89061033c90610f31565b6040517fffffffff0000000000000000000000000000000000000000000000000000000060e086901b166020820152839060009060240160408051601f198184030181529190527e040100040000000000000000000000000000000000000000000000000000006104d7565b5050565b7f629a4c26e296b22a8e0856e9f6ecb2d1008d7e00081111962cd175fa7488e1755460009073ffffffffffffffffffffffffffffffffffffffff16806103f3573391505090565b919050565b6000806104036103ac565b90503073ffffffffffffffffffffffffffffffffffffffff8216036104365761042e868686866105a7565b9150506104cf565b6040517f8c364d5900000000000000000000000000000000000000000000000000000000815273ffffffffffffffffffffffffffffffffffffffff821690638c364d599061048e908990899089908990600401610f93565b602060405180830381865afa1580156104ab573d6000803e3d6000fd5b505050506040513d601f19601f8201168201806040525081019061042e9190610fc2565b949350505050565b60006104e16103ac565b90503073ffffffffffffffffffffffffffffffffffffffff8216036105125761050d86868686866105dd565b61059f565b6040517f390baae000000000000000000000000000000000000000000000000000000000815273ffffffffffffffffffffffffffffffffffffffff82169063390baae09061056c9089908990899089908990600401610fdb565b600060405180830381600087803b15801561058657600080fd5b505af115801561059a573d6000803e3d6000fd5b505050505b505050505050565b60006105d46105b686866105f9565b60ff858116601b0360080285901c166105cf858761064f565b610692565b95945050505050565b6105f285856105ec848761064f565b856106e3565b5050505050565b6000828260405160200161060e929190611022565b60408051601f1981840301815291905280516020909101207f86425bff6b57326c7859e89024fe4f238ca327a1ae4a230180dd2f0e88aaa7d9189392505050565b600080805b8360ff1681101561068a5761067660ff601b83900360080287901c168361105d565b91508061068281611070565b915050610654565b509392505050565b6000602082106106b8576020820484019350602082816106b4576106b461108a565b0691505b508254600882021b60208290038084111561068a576001850154600882021c82179150509392505050565b60006106ef85856105f9565b9050847f8c0b5119d4cec7b284c6b1b39252a03d1e2f2d7451a5895562524c113bb952be858585604051610725939291906110b9565b60405180910390a2613a3160f11b857fffff00000000000000000000000000000000000000000000000000000000000016146107615750610940565b600061076c86610946565b905060005b815181101561084b57600082828151811061078e5761078e6110f6565b602002602001015190506107ba6004826affffffffffffffffffffff1916610a2690919063ffffffff16565b15610838576040517f964f667d000000000000000000000000000000000000000000000000000000008152606082901c9063964f667d90610805908b908b908b908b90600401611125565b600060405180830381600087803b15801561081f57600080fd5b505af1158015610833573d6000803e3d6000fd5b505050505b508061084381611070565b915050610771565b5061085f828565ffffffffffff1685610a44565b60005b815181101561093c57600082828151811061087f5761087f6110f6565b602002602001015190506108ab6008826affffffffffffffffffffff1916610a2690919063ffffffff16565b15610929576040517fa8ba8721000000000000000000000000000000000000000000000000000000008152606082901c9063a8ba8721906108f6908b908b908b908b90600401611125565b600060405180830381600087803b15801561091057600080fd5b505af1158015610924573d6000803e3d6000fd5b505050505b508061093481611070565b915050610862565b5050505b50505050565b60408051600180825281830190925260609160009190602080830190803683370190505090508281600081518110610980576109806110f6565b60209081029190910181019190915260408051613a3160f11b818401527f73746f726500000000000000000000000000000000000000000000000000000060228201527f53746f7265486f6f6b730000000000000000000000000000000000000000000060308201528151808203909301835281019052600090610a0f90610a0790610f31565b836000610a59565b90506104cf610a218260008451610a93565b610b2c565b60008160ff1682610a378560581c90565b1660ff1614905092915050565b610a548383602084018451610b44565b505050565b60606104cf610a69858585610c04565b610a8c84610a778888610c84565b9060ff166028026038011c64ffffffffff1690565b6000610c97565b6000818311158015610aa6575083518211155b610aeb578383836040517f23230fa3000000000000000000000000000000000000000000000000000000008152600401610ae293929190611169565b60405180910390fd5b60208401610af9848261105d565b90506000610b07858561118e565b6fffffffffffffffffffffffffffffffff1660809290921b9190911795945050505050565b60606000610b3d8360156000610cba565b9392505050565b8215610bbe5760208310610b6e57602083048401935060208381610b6a57610b6a61108a565b0692505b8215610bbe5760208390036000600019600884021c1990506008850281811c91508451811c9050811987541682821617875550818311610baf575050610940565b50600194909401939182019190035b5b60208110610be05781518455600190930192602090910190601f1901610bbf565b8015610940576000600019600883021c198554845182169119161785555050505050565b60008383604051602001610c19929190611022565b604051602081830303815290604052805190602001208260f81b7effffffffffffffffffffffffffffffffffffffffffffffffffffffffffffff19167f3b4102da22e32d82fc925482184f16c09fd4281692720b87d124aef6da48a0f1181860001c90509392505050565b6000610b3d610c938484610d35565b5490565b60405160208101601f19603f858401011660405283825261068a85858584610d8b565b60606000610cc88560801c90565b90506fffffffffffffffffffffffffffffffff85166000858281610cee57610cee61108a565b04905060405193506020840160208202810160405281855260005b82811015610d29578451871c825293870193602090910190600101610d09565b50505050509392505050565b60008282604051602001610d4a929190611022565b60408051601f1981840301815291905280516020909101207f14e2fcc58e58e68ec7edc30c8d50dccc3ce2714a623ec81f46b6a63922d76569189392505050565b8115610dfd5760208210610db557602082048401935060208281610db157610db161108a565b0691505b8115610dfd5760208290036000600019600883021c1990508554600885021b811984511682821617845250818511610dee575050610940565b50600194909401939283900392015b5b60208310610e1f5783548152600190930192601f1990920191602001610dfe565b8215610940576000600019600885021c198251865482169119161782525050505050565b600060208284031215610e5557600080fd5b81357fffffffff0000000000000000000000000000000000000000000000000000000081168114610b3d57600080fd5b6000815180845260005b81811015610eab57602081850181015186830182015201610e8f565b506000602082860101526020601f19601f83011685010191505092915050565b602081526000610b3d6020830184610e85565b7f4e487b7100000000000000000000000000000000000000000000000000000000600052601160045260246000fd5b63ffffffff818116838216019080821115610f2a57610f2a610ede565b5092915050565b80516020808301519190811015610f52576000198160200360031b1b821691505b50919050565b600081518084526020808501945080840160005b83811015610f8857815187529582019590820190600101610f6c565b509495945050505050565b848152608060208201526000610fac6080830186610f58565b60ff949094166040830152506060015292915050565b600060208284031215610fd457600080fd5b5051919050565b85815260a060208201526000610ff460a0830187610f58565b60ff86166040840152828103606084015261100f8186610e85565b9150508260808301529695505050505050565b82815260006020808301845182860160005b8281101561105057815184529284019290840190600101611034565b5091979650505050505050565b808201808211156101ac576101ac610ede565b6000600019820361108357611083610ede565b5060010190565b7f4e487b7100000000000000000000000000000000000000000000000000000000600052601260045260246000fd5b6060815260006110cc6060830186610f58565b65ffffffffffff8516602084015282810360408401526110ec8185610e85565b9695505050505050565b7f4e487b7100000000000000000000000000000000000000000000000000000000600052603260045260246000fd5b84815260806020820152600061113e6080830186610f58565b65ffffffffffff85166040840152828103606084015261115e8185610e85565b979650505050505050565b60608152600061117c6060830186610e85565b60208301949094525060400152919050565b818103818111156101ac576101ac610ede56fe596f752077616b65207570206661636520646f776e2e204974206973207261696e696e67a26469706673582212207d7aa1a7733e7a1dd1ae45a9d573aa55b1ea1c883762361a2bd63ac3eab9fab464736f6c63430008150033","linkReferences":{}},"methodIdentifiers":{"_msgSender()":"119df25f","_msgValue()":"45ec9354","_world()":"e1af802c","describe()":"1ad184ff","increment()":"d09de08a","supportsInterface(bytes4)":"01ffc9a7"},"id":158}